{
  "contractName": "VidAuth",
  "abi": [
    {
      "inputs": [
        {
          "internalType": "string",
          "name": "vidHash",
          "type": "string"
        }
      ],
      "name": "addNewVid",
      "outputs": [],
      "stateMutability": "nonpayable",
      "type": "function"
    },
    {
      "inputs": [
        {
          "internalType": "string",
          "name": "vidHash",
          "type": "string"
        }
      ],
      "name": "isVidExists",
      "outputs": [
        {
          "internalType": "bool",
          "name": "",
          "type": "bool"
        }
      ],
      "stateMutability": "view",
      "type": "function",
      "constant": true
    },
    {
      "inputs": [
        {
          "internalType": "string",
          "name": "vidHash",
          "type": "string"
        }
      ],
      "name": "getOwnerFromHash",
      "outputs": [
        {
          "internalType": "address",
          "name": "",
          "type": "address"
        }
      ],
      "stateMutability": "view",
      "type": "function",
      "constant": true
    },
    {
      "inputs": [
        {
          "internalType": "address",
          "name": "owner",
          "type": "address"
        }
      ],
      "name": "getVidsFromOwner",
      "outputs": [
        {
          "internalType": "string[]",
          "name": "",
          "type": "string[]"
        }
      ],
      "stateMutability": "view",
      "type": "function",
      "constant": true
    }
  ],
  "bytecode": "0x608060405234801561001057600080fd5b5061090f806100206000396000f3fe608060405234801561001057600080fd5b506004361061004c5760003560e01c8063487ed8b5146100515780637e15fbdd14610081578063e93f6ca3146100b1578063fe2b3453146100cd575b600080fd5b61006b600480360381019061006691906104f6565b6100fd565b60405161007891906106a3565b60405180910390f35b61009b6004803603810190610096919061051f565b610215565b6040516100a891906106c5565b60405180910390f35b6100cb60048036038101906100c6919061051f565b61024c565b005b6100e760048036038101906100e2919061051f565b61038c565b6040516100f49190610688565b60405180910390f35b6060600160008373ffffffffffffffffffffffffffffffffffffffff1673ffffffffffffffffffffffffffffffffffffffff168152602001908152602001600020805480602002602001604051908101604052809291908181526020016000905b8282101561020a57838290600052602060002001805461017d90610821565b80601f01602080910402602001604051908101604052809291908181526020018280546101a990610821565b80156101f65780601f106101cb576101008083540402835291602001916101f6565b820191906000526020600020905b8154815290600101906020018083116101d957829003601f168201915b50505050508152602001906001019061015e565b505050509050919050565b600080826040516102269190610671565b908152602001604051809103902060000160149054906101000a900460ff169050919050565b60405180602001604052806000815250805190602001208180519060200120141561027657600080fd5b336000826040516102879190610671565b908152602001604051809103902060000160006101000a81548173ffffffffffffffffffffffffffffffffffffffff021916908373ffffffffffffffffffffffffffffffffffffffff16021790555060016000826040516102e89190610671565b908152602001604051809103902060000160146101000a81548160ff021916908315150217905550600160003373ffffffffffffffffffffffffffffffffffffffff1673ffffffffffffffffffffffffffffffffffffffff168152602001908152602001600020819080600181540180825580915050600190039060005260206000200160009091909190915090805190602001906103889291906103d6565b5050565b6000808260405161039d9190610671565b908152602001604051809103902060000160009054906101000a900473ffffffffffffffffffffffffffffffffffffffff169050919050565b8280546103e290610821565b90600052602060002090601f016020900481019282610404576000855561044b565b82601f1061041d57805160ff191683800117855561044b565b8280016001018555821561044b579182015b8281111561044a57825182559160200191906001019061042f565b5b509050610458919061045c565b5090565b5b8082111561047557600081600090555060010161045d565b5090565b600061048c61048784610711565b6106e0565b9050828152602081018484840111156104a457600080fd5b6104af8482856107df565b509392505050565b6000813590506104c6816108c2565b92915050565b600082601f8301126104dd57600080fd5b81356104ed848260208601610479565b91505092915050565b60006020828403121561050857600080fd5b6000610516848285016104b7565b91505092915050565b60006020828403121561053157600080fd5b600082013567ffffffffffffffff81111561054b57600080fd5b610557848285016104cc565b91505092915050565b600061056c8383610607565b905092915050565b61057d816107a1565b82525050565b600061058e82610751565b6105988185610774565b9350836020820285016105aa85610741565b8060005b858110156105e657848403895281516105c78582610560565b94506105d283610767565b925060208a019950506001810190506105ae565b50829750879550505050505092915050565b610601816107b3565b82525050565b60006106128261075c565b61061c8185610785565b935061062c8185602086016107ee565b610635816108b1565b840191505092915050565b600061064b8261075c565b6106558185610796565b93506106658185602086016107ee565b80840191505092915050565b600061067d8284610640565b915081905092915050565b600060208201905061069d6000830184610574565b92915050565b600060208201905081810360008301526106bd8184610583565b905092915050565b60006020820190506106da60008301846105f8565b92915050565b6000604051905081810181811067ffffffffffffffff8211171561070757610706610882565b5b8060405250919050565b600067ffffffffffffffff82111561072c5761072b610882565b5b601f19601f8301169050602081019050919050565b6000819050602082019050919050565b600081519050919050565b600081519050919050565b6000602082019050919050565b600082825260208201905092915050565b600082825260208201905092915050565b600081905092915050565b60006107ac826107bf565b9050919050565b60008115159050919050565b600073ffffffffffffffffffffffffffffffffffffffff82169050919050565b82818337600083830152505050565b60005b8381101561080c5780820151818401526020810190506107f1565b8381111561081b576000848401525b50505050565b6000600282049050600182168061083957607f821691505b6020821081141561084d5761084c610853565b5b50919050565b7f4e487b7100000000000000000000000000000000000000000000000000000000600052602260045260246000fd5b7f4e487b7100000000000000000000000000000000000000000000000000000000600052604160045260246000fd5b6000601f19601f8301169050919050565b6108cb816107a1565b81146108d657600080fd5b5056fea2646970667358221220ac5a345f75ab17b637048d4970a82d5c9bb05e2a082c42a2080bbdda4746493364736f6c63430008000033",
  "immutableReferences": {},
  "source": "// SPDX-License-Identifier: MIT\r\npragma solidity ^0.8.0;\r\n\r\ncontract VidAuth {\r\n    struct OwnerData {\r\n        address vidOwner;\r\n        bool exists;\r\n    }\r\n\r\n    mapping(string => OwnerData) ownerMap;\r\n    mapping(address => string[]) vidsMap;\r\n\r\n    function addNewVid(string memory vidHash) public {\r\n        require(keccak256(bytes(vidHash)) != keccak256(bytes(\"\")));\r\n\r\n        ownerMap[vidHash].vidOwner = msg.sender;\r\n        ownerMap[vidHash].exists = true;\r\n        vidsMap[msg.sender].push(vidHash);\r\n    }\r\n\r\n    function isVidExists(string memory vidHash) view public returns(bool) {\r\n        return ownerMap[vidHash].exists;\r\n    }\r\n\r\n    function getOwnerFromHash(string memory vidHash) view public returns(address) {\r\n        return ownerMap[vidHash].vidOwner;\r\n    }\r\n\r\n    function getVidsFromOwner(address owner) view public returns(string[] memory) {\r\n        return vidsMap[owner];\r\n    }\r\n}\r\n",
  "sourcePath": "C:/Users/mujoo/Desktop/Major Project/BlockVidAuth/contracts/VidAuth.sol",
  "compiler": {
    "name": "solc",
    "version": "0.8.0+commit.c7dfd78e.Emscripten.clang"
  },
  "schemaVersion": "3.3.3",
  "updatedAt": "2021-05-08T14:42:27.205Z",
  "networkType": "ethereum",
  "devdoc": {
    "kind": "dev",
    "methods": {},
    "version": 1
  },
  "userdoc": {
    "kind": "user",
    "methods": {},
    "version": 1
  }
}