{
  "contractName": "VidAuth",
  "abi": [
    {
      "inputs": [
        {
          "internalType": "string",
          "name": "vidHash",
          "type": "string"
        },
        {
          "internalType": "string",
          "name": "vidPrediction",
          "type": "string"
        }
      ],
      "name": "addNewVid",
      "outputs": [],
      "stateMutability": "nonpayable",
      "type": "function"
    },
    {
      "inputs": [
        {
          "internalType": "string",
          "name": "vidHash",
          "type": "string"
        }
      ],
      "name": "isVidExists",
      "outputs": [
        {
          "internalType": "bool",
          "name": "",
          "type": "bool"
        }
      ],
      "stateMutability": "view",
      "type": "function",
      "constant": true
    },
    {
      "inputs": [
        {
          "internalType": "string",
          "name": "vidHash",
          "type": "string"
        }
      ],
      "name": "getOwnerFromHash",
      "outputs": [
        {
          "internalType": "address",
          "name": "",
          "type": "address"
        }
      ],
      "stateMutability": "view",
      "type": "function",
      "constant": true
    },
    {
      "inputs": [
        {
          "internalType": "address",
          "name": "owner",
          "type": "address"
        }
      ],
      "name": "getVidsFromOwner",
      "outputs": [
        {
          "internalType": "string[]",
          "name": "",
          "type": "string[]"
        }
      ],
      "stateMutability": "view",
      "type": "function",
      "constant": true
    }
  ],
  "bytecode": "0x608060405234801561001057600080fd5b506109b2806100206000396000f3fe608060405234801561001057600080fd5b506004361061004c5760003560e01c8063487ed8b5146100515780637e15fbdd14610081578063a04dde62146100b1578063fe2b3453146100cd575b600080fd5b61006b6004803603810190610066919061052d565b6100fd565b6040516100789190610746565b60405180910390f35b61009b60048036038101906100969190610556565b610215565b6040516100a89190610768565b60405180910390f35b6100cb60048036038101906100c69190610597565b61024c565b005b6100e760048036038101906100e29190610556565b6103c3565b6040516100f4919061072b565b60405180910390f35b6060600160008373ffffffffffffffffffffffffffffffffffffffff1673ffffffffffffffffffffffffffffffffffffffff168152602001908152602001600020805480602002602001604051908101604052809291908181526020016000905b8282101561020a57838290600052602060002001805461017d906108c4565b80601f01602080910402602001604051908101604052809291908181526020018280546101a9906108c4565b80156101f65780601f106101cb576101008083540402835291602001916101f6565b820191906000526020600020905b8154815290600101906020018083116101d957829003601f168201915b50505050508152602001906001019061015e565b505050509050919050565b600080826040516102269190610714565b908152602001604051809103902060020160009054906101000a900460ff169050919050565b60405180602001604052806000815250805190602001208280519060200120141561027657600080fd5b336000836040516102879190610714565b908152602001604051809103902060000160006101000a81548173ffffffffffffffffffffffffffffffffffffffff021916908373ffffffffffffffffffffffffffffffffffffffff16021790555060016000836040516102e89190610714565b908152602001604051809103902060020160006101000a81548160ff021916908315150217905550806000836040516103219190610714565b9081526020016040518091039020600101908051906020019061034592919061040d565b50600160003373ffffffffffffffffffffffffffffffffffffffff1673ffffffffffffffffffffffffffffffffffffffff168152602001908152602001600020829080600181540180825580915050600190039060005260206000200160009091909190915090805190602001906103be92919061040d565b505050565b600080826040516103d49190610714565b908152602001604051809103902060000160009054906101000a900473ffffffffffffffffffffffffffffffffffffffff169050919050565b828054610419906108c4565b90600052602060002090601f01602090048101928261043b5760008555610482565b82601f1061045457805160ff1916838001178555610482565b82800160010185558215610482579182015b82811115610481578251825591602001919060010190610466565b5b50905061048f9190610493565b5090565b5b808211156104ac576000816000905550600101610494565b5090565b60006104c36104be846107b4565b610783565b9050828152602081018484840111156104db57600080fd5b6104e6848285610882565b509392505050565b6000813590506104fd81610965565b92915050565b600082601f83011261051457600080fd5b81356105248482602086016104b0565b91505092915050565b60006020828403121561053f57600080fd5b600061054d848285016104ee565b91505092915050565b60006020828403121561056857600080fd5b600082013567ffffffffffffffff81111561058257600080fd5b61058e84828501610503565b91505092915050565b600080604083850312156105aa57600080fd5b600083013567ffffffffffffffff8111156105c457600080fd5b6105d085828601610503565b925050602083013567ffffffffffffffff8111156105ed57600080fd5b6105f985828601610503565b9150509250929050565b600061060f83836106aa565b905092915050565b61062081610844565b82525050565b6000610631826107f4565b61063b8185610817565b93508360208202850161064d856107e4565b8060005b85811015610689578484038952815161066a8582610603565b94506106758361080a565b925060208a01995050600181019050610651565b50829750879550505050505092915050565b6106a481610856565b82525050565b60006106b5826107ff565b6106bf8185610828565b93506106cf818560208601610891565b6106d881610954565b840191505092915050565b60006106ee826107ff565b6106f88185610839565b9350610708818560208601610891565b80840191505092915050565b600061072082846106e3565b915081905092915050565b60006020820190506107406000830184610617565b92915050565b600060208201905081810360008301526107608184610626565b905092915050565b600060208201905061077d600083018461069b565b92915050565b6000604051905081810181811067ffffffffffffffff821117156107aa576107a9610925565b5b8060405250919050565b600067ffffffffffffffff8211156107cf576107ce610925565b5b601f19601f8301169050602081019050919050565b6000819050602082019050919050565b600081519050919050565b600081519050919050565b6000602082019050919050565b600082825260208201905092915050565b600082825260208201905092915050565b600081905092915050565b600061084f82610862565b9050919050565b60008115159050919050565b600073ffffffffffffffffffffffffffffffffffffffff82169050919050565b82818337600083830152505050565b60005b838110156108af578082015181840152602081019050610894565b838111156108be576000848401525b50505050565b600060028204905060018216806108dc57607f821691505b602082108114156108f0576108ef6108f6565b5b50919050565b7f4e487b7100000000000000000000000000000000000000000000000000000000600052602260045260246000fd5b7f4e487b7100000000000000000000000000000000000000000000000000000000600052604160045260246000fd5b6000601f19601f8301169050919050565b61096e81610844565b811461097957600080fd5b5056fea2646970667358221220c7d3011a4ec24aeec75348c023df6f1b4bd4f7f3917a35568adbdaeefef8e01c64736f6c63430008000033",
  "immutableReferences": {},
  "source": "// SPDX-License-Identifier: MIT\r\npragma solidity ^0.8.0;\r\n\r\ncontract VidAuth {\r\n    struct VidData {\r\n        address vidOwner;\r\n        string vidPrediction;\r\n        bool exists;\r\n    }\r\n\r\n    mapping(string => VidData) vidDataMap;\r\n    mapping(address => string[]) vidsMap;\r\n\r\n    function addNewVid(string memory vidHash, string memory vidPrediction) public {\r\n        require(keccak256(bytes(vidHash)) != keccak256(bytes(\"\")));\r\n\r\n        vidDataMap[vidHash].vidOwner = msg.sender;\r\n        vidDataMap[vidHash].exists = true;\r\n        vidDataMap[vidHash].vidPrediction = vidPrediction;\r\n        vidsMap[msg.sender].push(vidHash);\r\n    }\r\n\r\n    function isVidExists(string memory vidHash) view public returns(bool) {\r\n        return vidDataMap[vidHash].exists;\r\n    }\r\n\r\n    function getOwnerFromHash(string memory vidHash) view public returns(address) {\r\n        return vidDataMap[vidHash].vidOwner;\r\n    }\r\n\r\n    function getVidsFromOwner(address owner) view public returns(string[] memory) {\r\n        return vidsMap[owner];\r\n    }\r\n}\r\n",
  "sourcePath": "C:/Users/mujoo/Desktop/Major Project/BlockVidAuth/contracts/VidAuth.sol",
  "compiler": {
    "name": "solc",
    "version": "0.8.0+commit.c7dfd78e.Emscripten.clang"
  },
  "schemaVersion": "3.3.3",
  "updatedAt": "2021-06-09T17:23:10.853Z",
  "networkType": "ethereum",
  "devdoc": {
    "kind": "dev",
    "methods": {},
    "version": 1
  },
  "userdoc": {
    "kind": "user",
    "methods": {},
    "version": 1
  }
}