{
  "contractName": "VidSource",
  "abi": [
    {
      "inputs": [
        {
          "internalType": "string",
          "name": "vidHash",
          "type": "string"
        },
        {
          "internalType": "string",
          "name": "vidSourceHash",
          "type": "string"
        }
      ],
      "name": "addVidSource",
      "outputs": [],
      "stateMutability": "nonpayable",
      "type": "function"
    },
    {
      "inputs": [
        {
          "internalType": "string",
          "name": "vidHash",
          "type": "string"
        }
      ],
      "name": "getSourcesFromVidHash",
      "outputs": [
        {
          "internalType": "string[]",
          "name": "",
          "type": "string[]"
        }
      ],
      "stateMutability": "view",
      "type": "function",
      "constant": true
    }
  ],
  "bytecode": "0x608060405234801561001057600080fd5b506106c2806100206000396000f3fe608060405234801561001057600080fd5b50600436106100365760003560e01c80636d2c54f31461003b578063af2a72d914610057575b600080fd5b61005560048036038101906100509190610350565b610087565b005b610071600480360381019061006c919061030f565b61010d565b60405161007e91906104c6565b60405180910390f35b6040518060200160405280600081525080519060200120828051906020012014156100b157600080fd5b6000826040516100c191906104af565b908152602001604051809103902081908060018154018082558091505060019003906000526020600020016000909190919091509080519060200190610108929190610204565b505050565b606060008260405161011f91906104af565b9081526020016040518091039020805480602002602001604051908101604052809291908181526020016000905b828210156101f957838290600052602060002001805461016c906105eb565b80601f0160208091040260200160405190810160405280929190818152602001828054610198906105eb565b80156101e55780601f106101ba576101008083540402835291602001916101e5565b820191906000526020600020905b8154815290600101906020018083116101c857829003601f168201915b50505050508152602001906001019061014d565b505050509050919050565b828054610210906105eb565b90600052602060002090601f0160209004810192826102325760008555610279565b82601f1061024b57805160ff1916838001178555610279565b82800160010185558215610279579182015b8281111561027857825182559160200191906001019061025d565b5b509050610286919061028a565b5090565b5b808211156102a357600081600090555060010161028b565b5090565b60006102ba6102b584610519565b6104e8565b9050828152602081018484840111156102d257600080fd5b6102dd8482856105a9565b509392505050565b600082601f8301126102f657600080fd5b81356103068482602086016102a7565b91505092915050565b60006020828403121561032157600080fd5b600082013567ffffffffffffffff81111561033b57600080fd5b610347848285016102e5565b91505092915050565b6000806040838503121561036357600080fd5b600083013567ffffffffffffffff81111561037d57600080fd5b610389858286016102e5565b925050602083013567ffffffffffffffff8111156103a657600080fd5b6103b2858286016102e5565b9150509250929050565b60006103c88383610445565b905092915050565b60006103db82610559565b6103e5818561057c565b9350836020820285016103f785610549565b8060005b85811015610433578484038952815161041485826103bc565b945061041f8361056f565b925060208a019950506001810190506103fb565b50829750879550505050505092915050565b600061045082610564565b61045a818561058d565b935061046a8185602086016105b8565b6104738161067b565b840191505092915050565b600061048982610564565b610493818561059e565b93506104a38185602086016105b8565b80840191505092915050565b60006104bb828461047e565b915081905092915050565b600060208201905081810360008301526104e081846103d0565b905092915050565b6000604051905081810181811067ffffffffffffffff8211171561050f5761050e61064c565b5b8060405250919050565b600067ffffffffffffffff8211156105345761053361064c565b5b601f19601f8301169050602081019050919050565b6000819050602082019050919050565b600081519050919050565b600081519050919050565b6000602082019050919050565b600082825260208201905092915050565b600082825260208201905092915050565b600081905092915050565b82818337600083830152505050565b60005b838110156105d65780820151818401526020810190506105bb565b838111156105e5576000848401525b50505050565b6000600282049050600182168061060357607f821691505b602082108114156106175761061661061d565b5b50919050565b7f4e487b7100000000000000000000000000000000000000000000000000000000600052602260045260246000fd5b7f4e487b7100000000000000000000000000000000000000000000000000000000600052604160045260246000fd5b6000601f19601f830116905091905056fea26469706673582212207f5aa865f64492cd060be6cda8ce11492f53ae293ef787caa8ef795b6d20194864736f6c63430008000033",
  "immutableReferences": {},
  "source": "// SPDX-License-Identifier: MIT\r\npragma solidity ^0.8.0;\r\n\r\ncontract VidSource {\r\n    mapping(string => string[]) vidSourceMap;\r\n\r\n    function addVidSource(string memory vidHash, string memory vidSourceHash) public {\r\n        require(keccak256(bytes(vidHash)) != keccak256(bytes(\"\")));\r\n\r\n        vidSourceMap[vidHash].push(vidSourceHash);\r\n    }\r\n\r\n    function getSourcesFromVidHash(string memory vidHash) view public returns(string[] memory) {\r\n        return vidSourceMap[vidHash];\r\n    }\r\n}\r\n",
  "sourcePath": "C:/Users/mujoo/Desktop/Major Project/BlockVidAuth/contracts/VidSource.sol",
  "compiler": {
    "name": "solc",
    "version": "0.8.0+commit.c7dfd78e.Emscripten.clang"
  },
  "schemaVersion": "3.3.3",
  "updatedAt": "2021-04-07T20:15:38.539Z",
  "networkType": "ethereum",
  "devdoc": {
    "kind": "dev",
    "methods": {},
    "version": 1
  },
  "userdoc": {
    "kind": "user",
    "methods": {},
    "version": 1
  }
}